:100000000C9446000C9465000C9465000C946500FB
:100010000C9465000C9465000C9465000C946500CC
:100020000C9465000C9465000C9465000C946500BC
:100030000C9465000C9465000C9465000C946500AC
:100040000C9465000C9465000C9474010C94B80138
:100050000C9465000C9465000C9465000C9465008C
:100060000C9465000C9465000C9465000C9465007C
:100070000C9465000C9465000C9465000C9465006C
:100080000C9465000C9465000C94650011241FBE4F
:10009000CFEFD0E1DEBFCDBF11E0A0E0B1E0E8E2FC
:1000A000F7E000E00BBF02C007900D92A637B10742
:1000B000D9F712E0A6E7B1E001C01D92A838B10758
:1000C000E1F70E949E020C9492030C9400008AB106
:1000D00080698AB908958AB188628AB908958AB117
:1000E0008F768AB908958AB1877D8AB90895982F45
:1000F0008AB188628AB95D9BFECF9CB98AB1877D3F
:100100008AB908955F9BFECF8CB10895FC01E05839
:10011000FF4F119211928FEF90E081939193118292
:100120001082089520E0FC01EC57FF4F80819181FF
:100130008F3F910511F00CF021E0822F089520E00F
:10014000FC01EC57FF4F80819181181619060CF0C5
:1001500021E0822F0895EF92FF920F931F93CF9388
:10016000DF938C01462F84E8E82EF12CE00EF11E7F
:10017000D701CD91DC91CF3FD10549F044F080E02B
:10018000DF91CF911F910F91FF90EF90089598010B
:100190002E573F4FF90180819181019660E071E017
:1001A0000E942C03FC01D9018D939C93E00FF11F59
:1001B00040832196F701D183C08381E0E1CFCF93C3
:1001C000DF93AC01EC01CC57DF4F88819981181681
:1001D000190624F080E0DF91CF9108959A0120580C
:1001E0003F4FD901ED91FC911197E40FF51F8081EC
:1001F000FB0180838D919C91019660E071E00E94EB
:100200002C03D9018D939C938881998101979983BF
:10021000888381E0E0CFDC01AC57BF4F8D919C918A
:100220001197A458B0408F3F910569F064F0AE5724
:10023000BF4FED91FC911197A258B040EA0FFB1F00
:100240008AE080830895CD016AE00E94AB000895A2
:10025000EF92FF920F931F93DF93CF930F92CDB73F
:10026000DEB78C017E010894E11CF11C03C089817A
:100270000E947700C801B7010E94DF008823B9F708
:100280000F90CF91DF911F910F91FF90EF90089504
:1002900090938702809386021092900089E189B939
:1002A0008EE08093950010928102109280028FEF71
:1002B00090E09093830280938202109285021092C4
:1002C00084021092FB011092FA019093FD01809339
:1002D000FC011092FF011092FE018AB1877D8AB95C
:1002E0008AB180698AB908951F920F920FB60F9252
:1002F0000BB60F9211242F933F934F935F936F93FD
:100300007F938F939F93AF93BF93EF93FF936CB1C2
:100310006093770180918402909185028F3F9105CF
:1003200089F084F005C080E092E00E94AB000DC02F
:10033000E0918602F091870280E092E06AE771E046
:10034000099503C06A3079F7F3CFFF91EF91BF9120
:10035000AF919F918F917F916F915F914F913F915D
:100360002F910F900BBE0F900FBE0F901F901895FE
:100370001F920F920FB60F920BB60F9211242F936C
:100380003F934F935F936F937F938F939F93AF931D
:10039000BF93EF93FF938AE791E066E771E00E94D5
:1003A000DF00882309F510928102109280028FEFFE
:1003B00090E09093830280938202109285021092C3
:1003C00084021092FB011092FA019093FD01809338
:1003D000FC011092FF011092FE018AB1877D8AB95B
:1003E0008AB180698AB903C0809176018CB9FF9186
:1003F000EF91BF91AF919F918F917F916F915F919D
:100400004F913F912F910F900BBE0F900FBE0F9009
:100410001F90189580E090E0A0E0B0E0B4990CC087
:100420000196A11DB11D803C27E2920729E0A20799
:1004300020E0B20799F733C01FBC82E08EBD1DBC1F
:100440001CBC20E030E040E050E0B49B12C08CB512
:100450009DB581569A4E68F42F5F3F4F4F4F5F4FC7
:10046000203C87E2380789E0480780E0580769F7B1
:1004700016C08CB59DB5A0E0B0E01EBC81362AEE5A
:10048000920720E0A20720E0B20718F02EEF3FEF1E
:1004900008C0B695A795979587959C0102C02FEF48
:1004A0003FEFC90108954FEF50E00E9453039C01B4
:1004B00080E0232B09F481E00895AF92BF92CF92A0
:1004C000DF92EF92FF920F931F93CF93DF936C0114
:1004D0007B01DB010D900020E9F78D0101501040F8
:1004E000061B170BC0E0D0E034E8A32EB12CA80EF9
:1004F000B91E08C0F701EC0FFD1FC60160810E9404
:10050000AB002196F501808191818F3F910579F0B3
:1005100074F0C6010E940B01DF91CF911F910F91E2
:10052000FF90EF90DF90CF90BF90AF900895C801FB
:100530008C1B9D0B18161906ECF2EBCFBF92CF92D5
:10054000DF92EF92FF920F931F93DF93CF93CDB77C
:10055000DEB72A970FB6F894DEBF0FBECDBF88EE88
:1005600092E090937901809378010E9448017894F9
:1005700075E3B72E60E5C62E5AE6D52E8E010F5FC5
:100580001F4F40E9E42E41E0F42EB89A8B2D8A9556
:10059000F1F7C09A8C2D8A95F1F7C0988D2D8A9528
:1005A000F1F70E940A02B8014AE050E00E9461039C
:1005B0008AB188628AB98AE791E0B8010E945D0237
:1005C00080E197E2F7013197F1F70197D9F7DDCF95
:1005D0000F931F93CF93DF93182F092FEB018AB14D
:1005E0008F768AB9812F0E940B0180E091E0612F04
:1005F000702F4FEF50E00E9453030097A9F4CE01F3
:100600006FE071E007C0CE0163E171E003C0CE018D
:100610006CE271E00E945D028AB188628AB9DF9162
:10062000CF911F910F91089588E591E0612F702F70
:100630004FEF50E00E945303009729F38EE591E0BD
:10064000612F702F4FEF50E00E9453030097F9F293
:10065000CE0165E671E0DECF97FB092E07260AD0B2
:1006600077FD04D00CD006D000201AF47095619567
:100670007F4F0895F6F7909581959F4F0895AA1B97
:10068000BB1B51E107C0AA1FBB1FA617B70710F07D
:10069000A61BB70B881F991F5A95A9F780959095AF
:1006A000BC01CD010895FB01DC014150504030F008
:1006B0008D910190801919F40020B9F7881B990BCE
:1006C0000895FB019F01E8944230C4F04532B4F430
:1006D0004A3029F497FB1EF4909581959F4F642F23
:1006E00077270E943F03805D8A330CF0895D8193F8
:1006F000CB010097A1F716F45DE251931082C90176
:100700000C948203DC01FC01672F71917723E1F7E0
:10071000329704C07C916D9370836291AE17BF07CE
:08072000C8F30895F894FFCF1F
:1007280048454C4F20726F6F7420726F6F74004190
:10073800434B0048656C6C6F2066726F6D2074685F
:10074800652061746D6567613132380041544D45EB
:1007580047413132382C204350553A31364D487A8A
:100768002C20424155443A2033383430302C20551F
:100778004252523A2032350068656C6C6F007374CF
:100788006174757300496E76616C696420436F6D9E
:060798006D616E640000BB
:00000001FF
