:100000000C94F5000C9414010C9414010C9414013C
:100010000C9414010C9419030C9414010C94140105
:100020000C9414010C9414010C9414010C941401FC
:100030000C9414010C9414010C9414010C94E1021E
:100040000C94BB060C9414010C9422020C946502CF
:100050000C9414010C94E9070C9414010C941401F1
:100060000C9414010C9414010C9414010C941401BC
:100070000C9414010C9414010C9414010C941401AC
:100080000C9414010C9413070C941401072C7AA5FA
:10009000BA6CC590DA3B9365FC8BBC53F810FD3C01
:1000A0005692834DBD879D3AB63DCBC9BF5BBE73AB
:1000B000DA0FC93F494E46494E4954594E414ECD3B
:1000C000CCCC3D0AD7233C17B7D13877CC2B32950F
:1000D00095E6241FB14F0A000020410000C84200ED
:1000E000401C4620BCBE4CCA1B0E5AAEC59D7400B7
:1000F000407A10F35A00A0724E18090010A5D4E8F7
:100100000000E87648170000E40B54020000CA9A89
:100110003B000000E1F505000080969800000040DB
:10012000420F000000A08601000000102700000020
:1001300000E803000000006400000000000A000066
:100140000000000100000000002C76D888DC674F1A
:100150000823DFC1DFAE59E1B1B796E5E3E453C64A
:100160003AE651997696E8E6C28426EB898C9B6242
:10017000ED407C6FFCEFBC9C9F40F2BAA56FA5F4EC
:1001800090055A2AF75C936B6CF9676DC11BFCE014
:10019000E40D47FEF520E6B500D0ED902E03009467
:1001A0003577050080841E080000204E0A000000FC
:1001B000C80C333333330F986E12831141EF8D2106
:1001C00014893BE65516CFFEE6DB18D1844B381B6D
:1001D000F77C1D901DA4BBE424203284725E228132
:1001E00000C9F124ECA1E53D270011241FBECFEF8B
:1001F000D0E1DEBFCDBF13E0A0E0B1E0E0EBFEE276
:1002000000E00BBF02C007900D92A231B107D9F7F1
:100210001BE0A2E1B3E001C01D92AB3BB107E1F7E7
:100220000E9491080C9456170C940000FC01E050B9
:10023000FC4F119211928FEF93E081939193118271
:100240001082089520E0FC01EC5FFB4F80819181DA
:10025000805094400CF021E0822F089520E0FC01B2
:10026000EC5FFB4F80819181181619060CF021E09C
:10027000822F0895EF92FF920F931F93CF93DF93F6
:100280008C01462F84E0E82EF82EE00EF11ED701F7
:10029000CD91DC91B4E0C030DB0744F080E0DF9129
:1002A000CF911F910F91FF90EF90089598012E5FCD
:1002B0003B4FF90180819181019660E074E00E94DA
:1002C000D80EFC01D9018D939C93E00FF11F408360
:1002D0002196F701D183C08381E0E1CFCF93DF93F3
:1002E000AC01EC01CC5FDB4F8881998118161906AF
:1002F00024F080E0DF91CF9108959A0120503C4F87
:10030000D901ED91FC911197E40FF51F8081FB015C
:1003100080838D919C91019660E074E00E94D80EDC
:10032000D9018D939C9388819981019799838883C2
:1003300081E0E0CFDC01AC5FBB4F8D919C911197C8
:10034000A450B4408050944064F0AE5FBB4FED9138
:10035000FC911197A250B440EA0FFB1F8AE0808302
:100360000895CD016AE00E943A0108958AB180693A
:100370008AB908958AB188628AB908958AB18F7658
:100380008AB908958AB1877D8AB90895982F8AB16C
:1003900088628AB95D9BFECF9CB98AB1877D8AB994
:1003A00008955F9BFECF8CB10895EF92FF920F935B
:1003B0001F93DF93CF930F92CDB7DEB78C017E01F1
:1003C0000894E11CF11C03C089810E94C601C80188
:1003D000B7010E946E018823B9F70F90CF91DF918A
:1003E0001F910F91FF90EF900895F8949093AC0BAC
:1003F0008093AB0B1092900087E689B98EE08093D2
:1004000095001092960B1092950B8FEF93E09093BE
:10041000980B8093970B10929A0B1092990B109255
:100420008F0710928E0790939107809390071092F8
:100430009307109292078AB1877D8AB98AB1806941
:100440008AB908951F920F920FB60F920BB60F92B2
:1004500011242F933F934F935F936F937F938F93C9
:100460009F93AF93BF93EF93FF936CB160937A0325
:100470008091990B90919A0B8050944084F005C024
:1004800085E997E00E943A010DC0E091AB0BF09135
:10049000AC0B85E997E06EE873E0099503C06A301C
:1004A000A1F3EECFFF91EF91BF91AF919F918F910B
:1004B0007F916F915F914F913F912F910F900BBE64
:1004C0000F900FBE0F901F9018951F920F920FB6AE
:1004D0000F920BB60F9211242F933F934F935F937C
:1004E0006F937F938F939F93AF93BF93EF93FF93FC
:1004F0008EE893E069E773E00E946E01882309F5B6
:100500001092960B1092950B8FEF93E09093980BAF
:100510008093970B10929A0B1092990B10928F0761
:1005200010928E07909391078093900710929307F3
:10053000109292078AB1877D8AB98AB180698AB997
:1005400003C0809179038CB9FF91EF91BF91AF9176
:100550009F918F917F916F915F914F913F912F91DB
:100560000F900BBE0F900FBE0F901F9018959C011F
:1005700044E0220F331F4A95E1F7A901481B590BAC
:10058000CA016AE370E00E94C40ECB010895680FAF
:10059000791FCB01089583B7886083BF83B78160DB
:1005A00083BF80EF81BF87B7826087BF10929407B7
:1005B00010928D030895C49A81E08093940712BE2F
:1005C00008951F920F920FB60F9211248F939F934D
:1005D000AF93BF9380919407813061F4C4981092D7
:1005E000940710929B0B10929C0B10929D0B1092F3
:1005F0009E0B16C080919B0B90919C0BA0919D0B24
:10060000B0919E0B0196A11DB11D80939B0B909301
:100610009C0BA0939D0BB0939E0B81E080938D0368
:10062000BF91AF919F918F910F900FBE0F901F9030
:1006300018951F920F920FB60F920BB60F921124BE
:100640002F933F934F935F936F937F938F939F93DA
:10065000AF93BF93EF93FF9380918D03813001F5AA
:1006600080919B0B90919C0BA0919D0BB0919E0B48
:100670008093B10B9093B20BA093B30BB093B40BD8
:1006800010928D038091B10B9091B20BA091B30B9E
:10069000B091B40B0E94B70290931303809312039E
:1006A000FF91EF91BF91AF919F918F917F916F914A
:1006B0005F914F913F912F910F900BBE0F900FBE06
:1006C0000F901F9018950E94CB02BC9A14981C9A08
:1006D00089B7806189BF8AB781608ABF0895E4E7DE
:1006E000F0E08081856A808308958093730085E8B7
:1006F00080937400089584E98093740008950F93A3
:100700001F930091AF0B1091B00BF801728560E060
:1007100020853185622B732B2091080330910903CA
:10072000620F731F882777FD8095982F0E943E0DDA
:1007300020E030E046E651E40E94A30C60932503DC
:10074000709326038093270390932803F801768102
:1007500060E024813581622B732B20910A03309154
:100760000B03620F731F882777FD8095982F0E94D7
:100770003E0D20E030E046E651E40E94A30C609379
:10078000290370932A0380932B0390932C03F80181
:10079000728160E020813181622B732B20913D03B7
:1007A00030913E03620F731F882777FD8095982F45
:1007B0000E943E0D20E030E046E651E40E94A30C8A
:1007C00060932D0370932E0380932F039093300337
:1007D0001F910F9108950895EF92FF920F931F9329
:1007E00090931D0380931C0370931F0360931E035B
:1007F0005093210340932003209324031093B00BC4
:100800000093AF0BF092AE0BE092AD0BE4E7F0E09B
:100810008081856A80831F910F91FF90EF900895EA
:10082000E1E0E0931A0310921B0390931F0380935F
:100830001E031092240370932103609320035093AE
:100840002303409322033093AE0B2093AD0BE4E7D8
:10085000F0E08081856A8083089588E48093700049
:1008600080E480937400089591E090931A031092AD
:100870001B0310922403E4E7F0E08081856A808303
:1008800090931A0310921B0380ED90E090931F0346
:1008900080931E031092240386E190E0909321033D
:1008A000809320038EE190E09093230380932203B2
:1008B0008BEE93E09093AE0B8093AD0B8081856AB5
:1008C0008083089583B7816083BF87B7816087BFC6
:1008D00012BE089591E090931A0310921B03109298
:1008E0002403E4E7F0E08081856A808390931A0313
:1008F00010921B03109224038081856A8083909359
:100900001A0310921B0386EA90E090931F038093D2
:100910001E03109224038DE290E0909321038093B4
:10092000200388E090E090932303809322038BEED2
:1009300093E09093AE0B8093AD0B8081856A8083AA
:10094000089587EA90E090931D0380931C0386EA44
:1009500090E090931F0380931E0382E390E09093B6
:1009600021038093200381E0809324038FE99BE09F
:100970009093B00B8093AF0B81E29AE09093AE0B13
:100980008093AD0BE4E7F0E08081856A8083089571
:1009900040E020E030E0C9010197F1F7C90101977B
:1009A000F1F7C9010197F1F74F5F4C33A1F70895B3
:1009B0008FB58E6F8FBD8EB58A618EBDEBE8F0E08E
:1009C0008081826C8083EAE8F0E080818A618083A4
:1009D0008FE19EE497BD86BD909381008093800057
:1009E00086B597B59BBD8ABD86B597B599BD88BDBF
:1009F00086B597B5909379008093780086B597B5C2
:100A000090938700809386000895EF92FF920F9352
:100A10001F9387B3806E87BB139A86B597B5805AAC
:100A20009F409BBD8ABD86B597B5805A9F4099BDB2
:100A300088BD86B597B5805A9F4058E7E52EF12CC2
:100A4000F7019183808386B597B5805A9F4006E869
:100A500010E0F801918380830E94C80486B597B5A1
:100A6000805D97409BBD8ABD86B597B5805D9740F8
:100A700099BD88BD86B597B5805D9740F701918394
:100A8000808386B597B5805D9740F8019183808318
:100A90000E94C8041F910F91FF90EF90089581E08C
:100AA00090E090936C0380936B0387B38F7187BB47
:100AB0001398089586B1876086B93E9A86B1886892
:100AC00086B9789410926C0310926B03089520E914
:100AD00031E008C0369A84EF91E0F9013197F1F7DF
:100AE0000197D9F780916B0390916C03892B91F357
:100AF0000895AF92BF92CF92DF92EF92FF920F9341
:100B00001F937B018C0166B577B580E090E00E9471
:100B10003C0D5B016C01C801B70120E030E04AEFF9
:100B200054E40E940A0E20E030E04AEF54E40E94B0
:100B30003F0C9B01AC01C601B5010E943E0C0E9416
:100B4000100D7BBD6ABD1F910F91FF90EF90DF905C
:100B5000CF90BF90AF900895AF92BF92CF92DF92A7
:100B6000EF92FF920F931F937B018C0166B577B5CF
:100B700080E090E00E943C0D5B016C01C801B70170
:100B800020E030E04AEF54E40E940A0E20E030E01A
:100B90004AEF54E40E943F0C9B01AC01C601B50131
:100BA0000E943E0C0E94100D79BD68BD1F910F91EF
:100BB000FF90EF90DF90CF90BF90AF900895AF92ED
:100BC000BF92CF92DF92EF92FF920F931F937B0120
:100BD0008C0166B577B580E090E00E943C0D5B012A
:100BE0006C01C801B70120E030E04AEF54E40E94F4
:100BF0000A0E20E030E04AEF54E40E943F0C9B01D3
:100C0000AC01C601B5010E943E0C0E94100D70930C
:100C10007900609378001F910F91FF90EF90DF9023
:100C2000CF90BF90AF900895AF92BF92CF92DF92D6
:100C3000EF92FF920F931F937B018C0166B577B5FE
:100C400080E090E00E943C0D5B016C01C801B7019F
:100C500020E030E04AEF54E40E940A0E20E030E049
:100C60004AEF54E40E943F0C9B01AC01C601B50160
:100C70000E943E0C0E94100D7093870060938600C6
:100C80001F910F91FF90EF90DF90CF90BF90AF90AA
:100C90000895AF92BF92CF92DF92EF92FF920F939F
:100CA0001F937B018C0166B577B580E090E00E94D0
:100CB0003C0D5B016C01C801B70120E030E040E869
:100CC0005AE30E940A0E20E030E04AEF54E40E940A
:100CD0000A0E20E030E04AEF54E40E943F0C9B01F2
:100CE000AC01C601B5010E943E0C0E94100D7BBDF7
:100CF0006ABD1F910F91FF90EF90DF90CF90BF9052
:100D0000AF900895AF92BF92CF92DF92EF92FF9291
:100D10000F931F937B018C0166B577B580E090E05F
:100D20000E943C0D5B016C01C801B70120E030E07E
:100D300040E85AE30E940A0E20E030E04AEF54E413
:100D40000E940A0E20E030E04AEF54E40E943F0C7B
:100D50009B01AC01C601B5010E943E0C0E94100D22
:100D600079BD68BD1F910F91FF90EF90DF90CF90FC
:100D7000BF90AF9008951F920F920FB60F9211245B
:100D80008F939F93809114039091150301969093F4
:100D90001503809314038091160390911703019615
:100DA00090931703809316039F918F910F900FBE1E
:100DB0000F901F901895EF92FF920F931F93CF9370
:100DC000DF937C01DC010D900020E9F78D010150DB
:100DD0001040081B190BC0E0D0E009C0F701EC0F70
:100DE000FD1F8EE893E060810E943A012196809178
:100DF0009207909193078050944074F08EE893E0AE
:100E00000E949A018AB188628AB9DF91CF911F91BD
:100E10000F91FF90EF900895C8018C1B9D0B181641
:100E20001906E4F2EBCF1F920F920FB60F920BB69A
:100E30000F9211240F931F932F933F934F935F9320
:100E40006F937F938F939F93AF93BF93EF93FF9392
:100E5000DF93CF93CDB7DEB72A97DEBFCDBF8091AA
:100E60007100887F883019F480911E030FC0809133
:100E70007100887F803119F480911C0307C0809134
:100E80007100887F883129F480912003809373005A
:100E900067C080917100887F883211F580911A03B4
:100EA0008823D1F080911B03882359F48091220379
:100EB0008093730085E88093740081E080931B0326
:100EC0006EC010921A0384E980937400E091AD0B18
:100ED000F091AE0B099563C080917400856A5DC086
:100EE00080917100887F803471F180917100887FDA
:100EF0008835A9F4809124032091730090E0880F35
:100F0000991FE091AF0BF091B00BE80FF91F208310
:100F10001182E091AD0BF091AE0B09953DC080912F
:100F20007100887F8035F1F4809124032091730053
:100F300090E0880F991FE091AF0BF091B00BE80F94
:100F4000F91F208311828091240381508093240310
:100F500080912403882321F080917400856C1DC04A
:100F600085E81BC080E091E00E94DB068AB18862C0
:100F70008AB98091710090E0887F90708E010F5F38
:100F80001F4FB8014AE050E00E943B10C8010E9488
:100F9000DB068AB188628AB984E9809374002A9654
:100FA000DEBFCDBFCF91DF91FF91EF91BF91AF91A8
:100FB0009F918F917F916F915F914F913F912F9171
:100FC0001F910F910F900BBE0F900FBE0F901F90AF
:100FD00018951F920F920FB60F920BB60F92112415
:100FE0002F933F934F935F936F937F938F939F9331
:100FF000AF93BF93CF93DF93EF93FF9334B125B1BA
:10100000922F80E0C32FD0E0C82BD92BCE016BE705
:1010100073E04AE050E00E943B108BE793E00E94AF
:10102000DB068AB188628AB987B1803481F48BE7A4
:1010300093E00E94DB068AB188628AB9BE0180E033
:1010400090E00E943C0D0E94490681E412C087B1E5
:10105000813481F48BE793E00E94DB068AB18862D9
:101060008AB9BE0180E090E00E943C0D0E94820699
:1010700080E487B9FF91EF91DF91CF91BF91AF915C
:101080009F918F917F916F915F914F913F912F91A0
:101090000F900BBE0F900FBE0F901F9018950F93DF
:1010A0001F93DF93CF93CDB7DEB764970FB6F89455
:1010B000DEBF0FBECDBF209112033091130300D0CD
:1010C00000D000D0EDB7FEB731968E010F5F1F4FF5
:1010D000ADB7BEB712961C930E9311978FE191E0B6
:1010E0009383828323503040358324830E945C1095
:1010F0008DB79EB706960FB6F8949EBF0FBE8DBFF4
:10110000C8010E94DB068AB188628AB964960FB66C
:10111000F894DEBF0FBECDBFCF91DF911F910F912D
:1011200008958F929F92AF92BF92CF92DF92EF92EB
:10113000FF920F931F93CF93DF930E94630386E088
:101140009BE090938C0380938B030E94F50178942D
:1011500088E48093700080E4809374000E946A04A5
:1011600088248394B6E09B2EA7EAAA2EB12CF6EA37
:10117000CF2ED12CE2E3EE2EF12C0FE91BE0C1E2E1
:10118000DAE0C49A8092940712BE8091160390917F
:101190001703845C9940A8F310921703109216036A
:1011A0000E944F089092240380917400856A809376
:1011B0007400B0921D03A0921C03D0921F03C09232
:1011C0001E03F0922103E0922003909224031093D7
:1011D000B00B0093AF0BD093AE0BC093AD0B8091CF
:1011E0007400856A80937400CCCFAF92BF92CF9287
:1011F000DF92EF92FF920F931F93DF93CF93CDB7C0
:10120000DEB7C258D0400FB6F894DEBF0FBECDBFD8
:1012100060913F037091400380914103909142039C
:1012200041E022E05E010894A11CB11C85010E94EE
:10123000EB0E6091430370914403809145039091BC
:1012400046030BE0C02ED12CCC0EDD1E41E022E087
:1012500086010E94EB0E60914703709148038091D4
:10126000490390914A0315E1E12EF12CEC0EFD1E8D
:1012700041E022E087010E94EB0E8DB79EB70A97EE
:101280000FB6F8949EBF0FBE8DBFEDB7FEB7319677
:101290008E01015E1F4FADB7BEB712961C930E9321
:1012A000119787E291E093838283B582A482D782EB
:1012B000C682F186E0860E945C108DB79EB70A96C2
:1012C0000FB6F8949EBF0FBE8DBFC8010E94DB060B
:1012D0008AB188628AB9CE57DF4F0FB6F894DEBF65
:1012E0000FBECDBFCF91DF911F910F91FF90EF9077
:1012F000DF90CF90BF90AF900895EF92FF920F9341
:101300001F93DF93CF93CDB7DEB7C456D0400FB64F
:10131000F894DEBF0FBECDBF8DB79EB70A970FB64C
:10132000F8949EBF0FBE8DBF0DB71EB70F5F1F4F46
:101330007E010894E11CF11CEDB7FEB7F282E18258
:101340008FE391E0F801938382836091250370918C
:10135000260380912703909128030E940B0DF8012A
:10136000758364836091290370912A0380912B0314
:1013700090912C030E940B0DF80177836683609196
:101380002D0370912E0380912F03909130030E94C2
:101390000B0DF801718760870E945C108DB79EB7B6
:1013A0000A960FB6F8949EBF0FBE8DBFC7010E946C
:1013B000DB068AB188628AB9CC59DF4F0FB6F89440
:1013C000DEBF0FBECDBFCF91DF911F910F91FF9078
:1013D000EF900895DB010D900020E9F71197A61B0F
:1013E000B70BAD010E94151020E0892B09F421E014
:1013F000822F0895CF93DF93EC01DC010D90002044
:10140000E9F7CD018C1B9D0B0E940C0F9C01A0E005
:10141000B0E00DC0842F90E0C0970A9710F04E32D4
:1014200029F4F901EA0FFB1F4083119621964881A8
:10143000442381F7A20FB31F1C92C901DF91CF9102
:1014400008952F923F924F925F926F927F928F9268
:101450009F92AF92BF92CF92DF92EF92FF920F9343
:101460001F93E091AF0BF091B00B948180E0E68088
:10147000F780E82AF92A908180E0A280B380A82A28
:10148000B92A708560E022853385622B732B88270B
:1014900077FD8095982F0E943E0D20E030E040E8D7
:1014A0005BE30E940A0E1B012C0160933F037093C3
:1014B000400380934103909342030027F7FC00957B
:1014C000102FC801B7010E943E0D20E030E040E837
:1014D0005BE30E940A0E3B014C016093430370934F
:1014E00044038093450390934603CC24B7FCC094F7
:1014F000DC2CC601B5010E943E0D20E030E040E842
:101500005BE30E940A0E5B016C01609347037093DA
:1015100048038093490390934A03C201B101A20199
:1015200091010E940A0E7B018C01C401B301A40148
:1015300093010E940A0E9B01AC01C801B7010E94F1
:101540003F0C7B018C01C601B501A60195010E94EB
:101550000A0E9B01AC01C801B7010E943F0C0E941A
:10156000710E7B018C0160934B0370934C0380934D
:101570004D0390934E03C201B101A80197010E944F
:10158000A30C0E94300C60934F0370935003809320
:10159000510390935203C401B301A80197010E9423
:1015A000A30C0E94300C60935303709354038093F8
:1015B000550390935603C601B501A80197010E94F7
:1015C000A30C0E94300C60935703709358038093D0
:1015D000590390935A031F910F91FF90EF90DF9062
:1015E000CF90BF90AF909F908F907F906F905F90C3
:1015F0004F903F902F9008954FEF53E00E942D1091
:101600009C0180E0232B09F481E008950F931F9340
:10161000DF93CF93CDB7DEB764970FB6F894DEBFF4
:101620000FBECDBF8C018AB18F768AB9C8010E94E6
:101630009A0187E591E0B8014FEF53E00E942D1029
:10164000009709F0AAC086E691E097C08AE691E08B
:1016500094C083E891E091C00E94D8048FEA91E0A1
:101660008CC00E9405058FEE91E087C081E090E07C
:1016700090936C0380936B0387B38F7187BB139830
:1016800083E392E07AC00E945A050E94670581E5D3
:1016900092E073C00E947D0972C00E94F5086FC07D
:1016A000809112039091130303978E010F5F1F4FD8
:1016B000B8014AE050E00E943B10C8010E94DB06DE
:1016C0008AB188628AB95BC0C8010E94FA098C019C
:1016D0000E94111060935B0370935C0380935D0321
:1016E00090935E0341C0C80165E672E00E94EA097A
:1016F000882379F0C8010E94FA098C010E94111018
:1017000060935F037093600380936103909362031F
:101710002BC0C80165E772E00E94EA09882379F0CE
:10172000C8010E94FA098C010E94111060936303A2
:1017300070936403809365039093660315C0C8019A
:1017400064E872E00E94EA098823A9F0C8010E94B7
:10175000FA098C010E94111060936703709368036B
:101760008093690390936A03C8010E94DB06C80155
:101770000E94B90F04C083E992E00E94DB068AB19F
:1017800088628AB964960FB6F894DEBF0FBECDBFEB
:10179000CF91DF911F910F91089583EA92E0B801F4
:1017A0004FEF53E00E942D10009709F44FCF89EAC4
:1017B00092E0B8014FEF53E00E942D10009709F41A
:1017C00048CF80EB92E0B8014FEF53E00E942D101C
:1017D000009709F441CF89EB92E0B8014FEF53E055
:1017E0000E942D10009709F43CCF83EC92E0B801E1
:1017F0004FEF53E00E942D10009709F437CF8EEC85
:1018000092E0B8014FEF53E00E942D10009709F4C9
:101810003ACF89ED92E0B8014FEF53E00E942D10CE
:10182000009709F437CF82EE92E0B8014FEF53E012
:101830000E942D10009709F430CF8BEE92E0B80192
:101840004FEF53E00E942D10009709F429CFC801F3
:1018500068EF72E00E94EA09882309F444CF34CF8C
:101860009F939F7746D10F9000203AF49058A2EAB8
:101870002AED3FE049E450E413D092C15058BB2711
:10188000AA270ED08DC17ED130F083D120F031F463
:101890009F3F11F41EF44EC10EF4E095E7FB44C1E6
:1018A000E92F8FD180F3BA17620773078407950772
:1018B00018F071F49EF5A7C10EF4E0950B2EBA2F27
:1018C000A02D0B01B90190010C01CA01A001112446
:1018D000FF27591B99F0593F50F4503E68F11A16F2
:1018E000F040A22F232F342F4427585FF3CF469583
:1018F00037952795A795F0405395C9F77EF41F16A5
:10190000BA0B620B730B840BBAF09150A1F0FF0F6E
:10191000BB1F661F771F881FC2F70EC0BA0F621F5A
:10192000731F841F48F4879577956795B795F7954A
:101930009E3F08F0B3CF9395880F08F09927EE0FDC
:101940009795879508950CD02BC123D140F01AD1DB
:1019500030F021F45F3F19F0E7C0511155C1EAC0E2
:1019600030D198F39923C9F35523B1F3951B550B47
:10197000BB27AA2762177307840738F09F5F5F4F62
:10198000220F331F441FAA1FA9F333D00E2E3AF0A3
:10199000E0E830D091505040E695001CCAF729D0BD
:1019A000FE2F27D0660F771F881FBB1F261737070C
:1019B0004807AB07B0E809F0BB0B802DBF01FF273C
:1019C00093585F4F2AF09E3F510568F0ADC01CC18F
:1019D0005F3FECF3983EDCF3869577956795B79576
:1019E000F7959F5FC9F7880F911D9695879597F991
:1019F0000895E1E0660F771F881FBB1F621773070A
:101A00008407BA0720F0621B730B840BBA0BEE1F1E
:101A100088F7E095089504D06894B111F5C0089551
:101A2000D8D088F09F5790F0B92F9927B751A0F0E0
:101A3000D1F0660F771F881F991F1AF0BA95C9F762
:101A400012C0B13081F0DFD0B1E00895DCC0672F63
:101A5000782F8827B85F39F0B93FCCF38695779512
:101A60006795B395D9F73EF49095809570956195FB
:101A70007F4F8F4F9F4F0895E89409C097FB3EF426
:101A800090958095709561957F4F8F4F9F4F9923CB
:101A9000A9F0F92F96E9BB279395F6958795779549
:101AA0006795B795F111F8CFFAF4BB0F11F460FF09
:101AB0001BC06F5F7F4F8F4F9F4F16C0882311F061
:101AC00096E911C0772321F09EE8872F762F05C075
:101AD000662371F096E8862F70E060E02AF09A9510
:101AE000660F771F881FDAF7880F9695879597F905
:101AF0000895DF93CF931F930F938B01EC01ECE8D4
:101B0000F0E01BD04DD09801AE018B01EC0160E0FC
:101B100070E080E89FE3B2DEE4D09801AE010F915F
:101B20001F91CF91DF9182C097F99F6780E870E0A5
:101B300060E008959FEF80EC0895DF93CF931F93AB
:101B40000F93FF92EF92DF927B018C01689405C0A6
:101B5000DA2EEF016BD0FE01E894A5912591359125
:101B600045915591AEF3EF019BDEFE019701A8016F
:101B7000DA9479F7DF90EF90FF900F911F91CF915A
:101B8000DF91089500240A94161617061806090610
:101B9000089500240A9412161306140605060895E3
:101BA000092E0394000C11F4882352F0BB0F40F46B
:101BB000BF2B11F460FF04C06F5F7F4F8F4F9F4FAB
:101BC000089557FD9058440F551F59F05F3F71F02D
:101BD0004795880F97FB991F61F09F3F79F0879594
:101BE0000895121613061406551FF2CF4695F1DF1D
:101BF00008C0161617061806991FF1CF86957105AD
:101C0000610508940895E894BB2766277727CB01E0
:101C100097F908950BD0C4CFB5DF28F0BADF18F0DC
:101C2000952309F081CF86CF1124EECFCADFA0F330
:101C3000959FD1F3950F50E0551F629FF001729F61
:101C4000BB27F00DB11D639FAA27F00DB11DAA1F80
:101C5000649F6627B00DA11D661F829F2227B00DCD
:101C6000A11D621F739FB00DA11D621F839FA00D58
:101C7000611D221F749F3327A00D611D231F849FA8
:101C8000600D211D822F762F6A2F11249F575040FF
:101C90008AF0E1F088234AF0EE0FFF1FBB1F661F9A
:101CA000771F881F91505040A9F79E3F510570F053
:101CB0003BCFAACF5F3FECF3983EDCF38695779558
:101CC0006795B795F795E7959F5FC1F7FE2B880F4E
:101CD000911D9695879597F9089511F40EF42ACFE2
:101CE0003EC077DFD0F39923D9F3CEF39F57550B3E
:101CF00087FF43D00024A0E640EA90018058569523
:101D0000979528F4805C660F771F881F20F02617B0
:101D10003707480730F4621B730B840B20293129E5
:101D20004A2BA69517940794202531254A2758F762
:101D3000660F771F881F20F026173707480730F4F3
:101D4000620B730B840B200D311D411DA09581F793
:101D5000B901842F9158880F9695879508959F3FD4
:101D600031F0915020F4879577956795B795880F56
:101D7000911D9695879597F9089591505040660F5B
:101D8000771F881FD2F70895AA1BBB1B51E107C01C
:101D9000AA1FBB1FA617B70710F0A61BB70B881FFB
:101DA000991F5A95A9F780959095BC01CD0108958A
:101DB00097FB092E07260AD077FD04D0E5DF06D071
:101DC00000201AF4709561957F4F0895F6F790956D
:101DD00081959F4F0895EF92FF920F931F93F22FDB
:101DE000F02E47FD02C0E4E001C0E4E1242F3327D8
:101DF00027FD309537FF03C0309521953F4F4F2D7C
:101E0000512F0F2FEE2E0E9493128F2D912F1F9185
:101E10000F91FF90EF900895CF93DF93BC01823034
:101E2000910510F462E070E0A091B70BB091B80B8F
:101E3000ED01E0E0F0E040E050E021C088819981D0
:101E40008617970769F48A819B81309719F09383ED
:101E5000828304C09093B80B8093B70BFE0134C00B
:101E60006817790738F44115510519F0841795075B
:101E700008F4AC01FE018A819B819C01E901209755
:101E8000E9F641155105A9F1CA01861B970B049784
:101E900008F4BA01E0E0F0E02AC08D919C9111971E
:101EA00084179507F9F46417750781F412968D91DC
:101EB0009C911397309719F09383828304C0909379
:101EC000B80B8093B70BFD0132964FC0CA01861B39
:101ED000970BFD01E80FF91F6193719302978D93A2
:101EE0009C9343C0FD01828193819C01D90110978D
:101EF000A1F68091B50B9091B60B892B41F480919E
:101F00000E0390910F039093B60B8093B50B409105
:101F10001003509111034115510541F44DB75EB7BF
:101F200080910C0390910D03481B590B2091B50B28
:101F30003091B60B24173507B0F4CA01821B930BFE
:101F40008617970780F0AB014E5F5F4F84179507A8
:101F500050F0420F531F5093B60B4093B50BF9014D
:101F60006193719302C0E0E0F0E0CF01DF91CF9187
:101F70000895CF93DF93009709F450C0EC012297A6
:101F80001B821A82A091B70BB091B80B109709F180
:101F900040E050E0AC17BD0708F1BB83AA83FE0107
:101FA00021913191E20FF31FAE17BF0779F48D91A4
:101FB0009C911197280F391F2E5F3F4F398328833B
:101FC00012968D919C9113979B838A83411551059D
:101FD00071F4D093B80BC093B70B20C012968D91BB
:101FE0009C911397AD01009711F0DC01D3CFFA015A
:101FF000D383C28321913191E20FF31FCE17DF0704
:1020000069F488819981280F391F2E5F3F4FFA01AB
:10201000318320838A819B8193838283DF91CF9157
:102020000895662777270C941514FB01DC014150B5
:10203000504088F08D9181341CF08B350CF4805E1B
:10204000619161341CF06B350CF4605E861B61118C
:1020500071F3990B0895881BFCCFFB01DC01415003
:10206000504030F08D910190801919F40020B9F79B
:10207000881B990B0895FB019F01E8944230C4F03E
:102080004532B4F44A3029F497FB1EF490958195BB
:102090009F4F642F77270E94C40E805D8A330CF017
:1020A000895D8193CB010097A1F716F45DE251930E
:1020B0001082C9010C9491160F931F93DF93CF9355
:1020C000CDB7DEB72E970FB6F894DEBF0FBECDBFEB
:1020D0000D891E8986E08C831A8309838FEF9FE721
:1020E0009E838D839E01275E3F4FCE0101966F89AF
:1020F000788DA9010E948D102F813885020F131F42
:10210000F80110822E960FB6F894DEBF0FBECDBF39
:10211000CF91DF911F910F9108952F923F924F928F
:102120005F926F927F928F929F92AF92BF92CF9267
:10213000DF92EF92FF920F931F93DF93CF93CDB770
:10214000DEB72B970FB6F894DEBF0FBECDBF3C01B4
:102150002B015A01FC0117821682838181FD03C085
:102160006FEF7FEFC6C19AE0892E1E010894211CF3
:10217000311CF3012381F20123FD859123FF81911D
:102180002F01882309F4B2C1853239F423FD8591EA
:1021900023FF81912F01853229F490E0B3010E9441
:1021A000A116E7CF982FFF24EE249924FFE1FF1515
:1021B000D0F09B3269F09C3228F4903259F093327F
:1021C00091F40EC09D3249F0903369F441E024C08F
:1021D00052E0F52A84E0F82A28C098E0F92A25C0C0
:1021E000E0E1FE2A22C0F7FC29C0892F80538A3003
:1021F00070F4F6FE05C0989C902C1124980E15C022
:10220000E89CE02C1124E80EF0E2FF2A0EC09E327A
:1022100029F4F6FC6BC140E4F42A07C09C3619F49B
:1022200050E8F52A02C0983649F4F20123FD959151
:1022300023FF91912F01992309F0B8CF892F85545D
:10224000833018F08052833038F444E050E0A40E1C
:10225000B51E5FE359830FC0933631F0933779F0A1
:10226000933509F056C020C0F5018081898342E092
:1022700050E0A40EB51E610101E010E012C0F501AE
:10228000C080D180F6FC03C06FEF7FEF02C0692DE4
:1022900070E042E050E0A40EB51EC6010E94861612
:1022A0008C015FE7F52214C0F501C080D180F6FCF7
:1022B00003C06FEF7FEF02C0692D70E042E050E095
:1022C000A40EB51EC6010E947B168C0150E8F52AAB
:1022D000F3FE07C01AC080E290E0B3010E94A1168D
:1022E000EA948E2D90E008171907A8F30EC0F601A6
:1022F000F7FC8591F7FE81916F0190E0B3010E9498
:10230000A116E110EA94015010400115110579F76A
:10231000EAC0943611F0993669F5F7FE08C0F50168
:10232000208131814281538184E090E00AC0F5012F
:10233000808191819C01442737FD4095542F82E094
:1023400090E0A80EB91E9FE6F92257FF09C05095EC
:102350004095309521953F4F4F4F5F4FE0E8FE2A63
:10236000CA01B901A1012AE030E00E94CD16D82EA1
:10237000D21840C0953729F41F2D1F7E2AE030E087
:102380001DC01F2D197F9F3661F0903720F49835BE
:1023900009F0ACC00FC0903739F0983709F0A6C0EB
:1023A00004C028E030E00AC0106114FD146020E190
:1023B00030E004C014FD166020E132E017FF08C0D1
:1023C000F501608171818281938144E050E008C011
:1023D000F50180819181BC0180E090E042E050E015
:1023E000A40EB51EA1010E94CD16D82ED2188FE7DB
:1023F000F82EF122F6FE0BC05EEFF522D91438F468
:10240000F4FE07C0F2FC05C08FEEF82202C01D2DBD
:1024100001C0192DF4FE0DC0FE01ED0DF11D8081EE
:10242000803319F499EEF92208C01F5FF2FE05C04F
:1024300003C08F2D867809F01F5F0F2DF3FC14C0A9
:10244000F0FE0FC01E1510F09D2C0BC09D2C9E0C95
:10245000911A1E2D06C080E290E0B3010E94A116E1
:102460001F5F1E15C0F304C01E1510F4E11A01C051
:10247000EE2404FF0FC080E390E0B3010E94A11698
:1024800002FF1DC001FD03C088E790E00EC088E593
:1024900090E00BC0802F867891F001FF02C08BE2A4
:1024A00001C080E2F7FC8DE290E0B3010E94A1162A
:1024B00006C080E390E0B3010E94A1169A94D9145B
:1024C000C0F3DA94F101ED0DF11D808190E0B301CC
:1024D0000E94A116DD20A9F706C080E290E0B301BA
:1024E0000E94A116EA94EE20C1F743CEF301668163
:1024F0007781CB012B960FB6F894DEBF0FBECDBF10
:10250000CF91DF911F910F91FF90EF90DF90CF90CF
:10251000BF90AF909F908F907F906F905F904F9003
:102520003F902F9008956F927F928F929F92AF92DB
:10253000BF92CF92DF92EF92FF920F931F93DF93A0
:10254000CF93CDB7DEB729970FB6F894DEBF0FBE95
:10255000CDBF6A01122FA02EBE2C2BE3201718F43A
:102560002CE3922E02C0902E9394AE014F5F5F4FEA
:1025700027E0092D0E948315BC018981E82EFF24E4
:10258000C70189709070019711F4ADE209C0B1FEE6
:1025900002C0ABE205C0B0FC02C0A0E001C0A0E2F6
:1025A000E3FE3BC0AA2311F423E001C024E021177D
:1025B00010F020E002C0121B212FEB2CB4FE02C051
:1025C000322F0AC0F601322F80E202C081933150CF
:1025D0003323E1F7C20ED11CAA2319F0F601A1930F
:1025E0006F01F6013196E2FE05C09EE4D6019C9390
:1025F00081E404C09EE6D6019C9381E611968C93FB
:1026000091833296DF01832F90E202C09D93815027
:102610008823E1F7E30FF11D40C0E2FE42C0AA2388
:1026200011F423E001C024E0211710F020E002C0E3
:10263000121B212FEB2CB4FE02C0922F0AC0F60110
:10264000922F80E202C0819391509923E1F7C20E4C
:10265000D11CAA2319F0F601A1936F01F60131965E
:10266000E2FE08C089E4D6018C938EE411968C9327
:1026700086E407C089E6D6018C938EE611968C938A
:1026800086E681833296DF01892F20E202C02D93F6
:1026900081508823E1F7E90FF11D10822EEF3FEF03
:1026A000AEC0161617061CF041E050E003C0AB01A7
:1026B0004F5F5F4FAA2019F480E090E003C08A2D9D
:1026C00090E0019620E030E0AA2311F021E030E014
:1026D000240F351F280F391F812F90E02817390745
:1026E00014F020E002C0121B212F4B2D50E0CA0134
:1026F00080719070B4FC0DC0B3FC0BC0F601322F9A
:1027000040E202C0419331503323E1F7C20ED11CA5
:1027100001C0322FAA2319F0F601A1936F01892B72
:1027200011F0132F0AC0F601132F80E302C081932A
:1027300011501123E1F7C30ED11C092D060FBA80E9
:1027400090E1892E912C8E209F20E4FE04C0F1E3BD
:10275000BF1609F40150101614F001E003C009304F
:1027600008F008E09B0177FF02C020E030E0CB01D9
:102770000196821B930BFE013196E80FF91F8EE242
:10278000F82E3B01601A71088A2D90E044275527E6
:10279000481B590B8FEF2F3F380719F4D601FD92D4
:1027A0006D01621773072CF06216730614F48081B2
:1027B00001C080E32150304031962417350724F0C2
:1027C000D6018D936D01E6CF2617370741F4B5E3A7
:1027D000BB1520F0BB1619F4892809F481E3F60132
:1027E0008193D601812F90E202C09C938150119673
:1027F0008823D9F7E10FF11D108220E030E0C901F4
:1028000029960FB6F894DEBF0FBECDBFCF91DF91F2
:102810001F910F91FF90EF90DF90CF90BF90AF90FE
:102820009F908F907F906F9008958F929F92AF921C
:10283000BF92CF92DF92EF92FF920F931F93CF93AD
:10284000DF93EC015B016115710519F0FB019183C8
:102850008083F9908F2D90E00E945B16892BC9F739
:10286000FDE2FF1621F4F990EE24E39405C02BE27B
:10287000F21609F4F990EE248E0101501040C801BF
:1028800064EB70E043E050E00E946316892B01F591
:102890008E010E5F1F4FC80167EB70E045E050E00E
:1028A0000E946316892B19F48E01095F1F4FA11432
:1028B000B10419F0F50111830083E0FC04C070E05D
:1028C00090E080E814C070E090E080E86FEF08C10D
:1028D000C8016CEB70E043E050E00E946316892B66
:1028E00069F4A114B10429F470E090E080EC6FE782
:1028F000F7C02296F501D183C083F6CF88249924AE
:1029000040E050E060E070E0EF2DE053EA30A0F5E9
:10291000F2E0EF2A8E2D90E09C0128703070E2FEEC
:1029200006C0232B79F50894811C911C2BC0232B06
:1029300019F0089481089108DB01CA0112E0880FA0
:10294000991FAA1FBB1F1A95D1F7480F591F6A1F5D
:102950007B1F440F551F661F771F4E0F511D611DB2
:10296000711D483929E9520729E9620729E17207EF
:1029700048F084E0E82A06C0EE3F31F4E3FC39C0B9
:1029800098E0E92AF990C0CFE53311F0E53189F5F7
:1029900029912D3219F4E0E1EE2A05C02B3219F00D
:1029A00081E090E003C0299182E090E0E22FE053C3
:1029B000EA3018F0C81BD90B1CC020E030E0FCE066
:1029C00020383F075CF4C901880F991F880F991FB1
:1029D000280F391F220F331F2E0F311DE991E053AD
:1029E000EA3068F3E4FE03C0309521953F4F820E34
:1029F000931ECE2CDD24E1FE07C0A114B10421F00A
:102A00002197F501D183C083CB01BA010E943C0D0F
:102A10007B018C01F3E0CF22DD2423E0C216D10438
:102A200021F417FB109517F9109557016801C8019B
:102A3000B70120E030E040E050E00E942B178823EF
:102A400009F44AC097FE0DC023EDE22E20E0F22EDD
:102A50009094819491089394C0E2D0E000E010E05B
:102A600012C09BEEE92E90E0F92EF6CFF7012591EA
:102A7000359145915491C601B5010E940A0E5B0142
:102A80006C018C1A9D0A8C169D0684F7D595C79506
:102A90000F5F1F4F0630110529F08CEF9FEFE80EF6
:102AA000F91EF1CFC501D6017C018D018C2D880F57
:102AB0008D2D881F8F3F51F0C601B50120E030E019
:102AC00040E050E00E942B17882331F482E290E02E
:102AD0009093BA0B8093B90B7E2D9F2D802F612F81
:102AE000272F392F482F562FB901CA01DF91CF91D7
:102AF0001F910F91FF90EF90DF90CF90BF90AF901C
:102B00009F908F900895283008F027E03327DA014E
:102B1000990F311D87FD916000966105710539F4AB
:102B200032602E5F3D9330E32A95E1F708959F3F91
:102B300030F080387105610509F03C5F3C5F3D93E2
:102B4000913008F08068911DDF93CF931F930F930E
:102B5000FF92EF92192F987F9695E92F969596956B
:102B6000E90FFF27E75BFE4F99273327EE24FF2469
:102B7000A701E70105900894079428F4360FE71E93
:102B8000F81E491F511D660F771F881F991F069455
:102B9000A1F70590079428F4E70EF81E491F561F69
:102BA000C11D770F881F991F661F0694A1F7059016
:102BB000079428F4F80E491F561FC71FD11D880F10
:102BC000991F661F771F0694A1F70590079420F4BC
:102BD000490F561FC71FD81F990F661F771F881FE1
:102BE0000694A9F784911095177041F0D695C79572
:102BF00057954795F794E7941A95C1F7EFEEF0E0F3
:102C000068941590159135916591959105907FE2A5
:102C10007395E118F10A430B560BC90BD009C0F7A5
:102C2000E10CF11E431F561FC91FD01D7EF47033E7
:102C300011F48A95E6CFE894015030F0080F0AF4B9
:102C40000027021708F4202F2395022F7A3328F04B
:102C500079E37D932A95E9F710C07D932A9589F64B
:102C6000069497956795379517951794E118F10A8B
:102C7000430B560BC90BD00998F023957E917395A1
:102C80007A3308F070E37C932013B8F77E9170617B
:102C90007D9330F0839571E37D9370E32A95E1F79E
:102CA0001124EF90FF900F911F91CF91DF91992701
:102CB00087FD909508959111F6C0803219F08950E2
:102CC0008550D0F70895FB01DC014150504088F059
:102CD0008D9181341CF08B350CF4805E65916134EC
:102CE0001CF06B350CF4605E861B611171F3990B5F
:102CF0000895881BFCCFFC010590615070400110C5
:102D0000D8F7809590958E0F9F1F0895FC01615014
:102D1000704001900110D8F7809590958E0F9F1FFD
:102D20000895DC01FC01672F71917723E1F7329759
:102D300004C07C916D9370836291AE17BF07C8F396
:102D400008950F931F93CF93DF938C01EB018B8139
:102D500081FF1BC082FF0DC02E813F818C819D8130
:102D60002817390764F4E881F9810193F983E8832E
:102D700006C0E885F985802F0995892B31F48E816D
:102D80009F8101969F838E8302C00FEF1FEFC801C2
:102D9000DF91CF911F910F910895FA01AA27283052
:102DA00051F1203181F1E8946F936E7F6E5F7F4F18
:102DB0008F4F9F4FAF4FB1E03ED0B4E03CD0670F94
:102DC000781F891F9A1FA11D680F791F8A1F911DE7
:102DD000A11D6A0F711D811D911DA11D20D009F437
:102DE00068943F912AE0269F11243019305D319379
:102DF000DEF6CF010895462F4770405D4193B3E062
:102E00000FD0C9F7F6CF462F4F70405D4A3318F008
:102E1000495D31FD4052419302D0A9F7EACFB4E0B9
:102E2000A6959795879577956795BA95C9F7009771
:102E30006105710508959B01AC010A2E0694579512
:102E4000479537952795BA95C9F7620F731F841F69
:102E5000951FA01D089503D008F481E00895990FEF
:102E60000008550FAA0BE0E8FEEF16161706E80754
:102E7000F907C0F012161306E407F50798F0621B75
:102E8000730B840B950B39F40A2661F0232B242B4A
:102E9000252B21F408950A2609F4A140A6958FEF69
:102EA000811D811D0895992788270895F894FFCFE3
:102EB000556E68616E646C6564205374617465203E
:102EC0002853746174757320436F6465293A002830
:102ED000724629202564002861582920257320285E
:102EE0006159292025732028615A2920257300283B
:102EF000675829202564202867592920256420281F
:102F0000675A292025640048454C4F20726F6F7422
:102F100020726F6F740041434B0048656C6C6F20EA
:102F200066726F6D207468652061746D65676131CC
:102F300032380041544D4547413132382C204350FE
:102F4000553A31364D487A2C20424155443A203387
:102F5000383430302C20554252523A20323500500D
:102F600075736C65205769647468204D6F64756C67
:102F70006174696F6E20656E61626C656420616E5C
:102F800064206F7065726174696E67206F6E2031A6
:102F90003030487A206672657175656E63790049D4
:102FA0006E697469616C697A696E67206D6F746FA0
:102FB00072732C20747970652027737065656420A6
:102FC000746573742720746F2072756E206120639E
:102FD0006F6E7374616E74207370656564207465C0
:102FE0007374004B696C6C696E6720616C6C207245
:102FF000756E6E696E672070726F6365737365734B
:10300000007370656564207465737420636F6D7000
:103010006C657465007365742073706565642073F6
:103020006F757468007365742073706565642065DE
:1030300061737400736574207370656564207765CF
:10304000737400496E76616C696420436F6D6D61C5
:103050006E640068656C6C6F0073746174757300E6
:10306000696E69742070776D00696E69742065738C
:10307000637300646561637469766174650073707D
:103080006565642074657374006765742067797280
:103090006F00676574206163636C0067657420640A
:1030A000697374616E636500736574207370656520
:1030B00064206E6F727468001400CEFF2000BB0B9A
:0230C00000000E
:00000001FF
