:100000000C9434000C9446000C9446000C9446006A
:100010000C9446000C9446000C9446000C94460048
:100020000C9446000C9446000C9446000C94460038
:100030000C9446000C9446000C9446000C94460028
:100040000C9446000C9446000C9446000C94460018
:100050000C9446000C9446000C9446000C94460008
:100060000C9446000C94460011241FBECFEFD8E03C
:10007000DEBFCDBF19E0A0E0B1E001C01D92A0310C
:10008000B107E1F70E9410020C94C1020C94000029
:10009000FC01E050FC4F119211928FEF93E081939D
:1000A000919311821082089520E0FC01EC5FFB4FD8
:1000B00080819181805094400CF021E0822F08953E
:1000C00020E0FC01EC5FFB4F80819181181619063E
:1000D0000CF021E0822F0895EF92FF920F931F936F
:1000E000CF93DF938C01462F84E0E82EF82EE00EAC
:1000F000F11ED701CD91DC91B4E0C030DB0744F0B4
:1001000080E0DF91CF911F910F91FF90EF900895C4
:1001100098012E5F3B4FF90180819181019660E04B
:1001200074E00E948C02FC01D9018D939C93E00F36
:10013000F11F40832196F701D183C08381E0E1CF95
:10014000CF93DF93AC01EC01CC5FDB4F88819981C9
:100150001816190624F080E0DF91CF9108959A01D6
:1001600020503C4FD901ED91FC911197E40FF51F00
:100170008081FB0180838D919C91019660E074E009
:100180000E948C02D9018D939C938881998101975B
:100190009983888381E0E0CFDC01AC5FBB4F8D9118
:1001A0009C911197A450B4408050944064F0AE5F8D
:1001B000BB4FED91FC911197A250B440EA0FFB1F89
:1001C0008AE080830895CD016AE00E946C00089562
:1001D000E1ECF0E08081806980830895E1ECF0E05B
:1001E0008081886280830895E1ECF0E080818F76E1
:1001F00080830895E1ECF0E08081877D808308951D
:10020000982F8091C10088628093C1008091C000C6
:1002100085FFFCCF9093C6008091C100877D8093BD
:10022000C10008958091C00087FFFCCF8091C60077
:100230000895EF92FF920F931F93DF93CF930F9246
:10024000CDB7DEB78C017E010894E11CF11C03C020
:1002500089810E940001C801B7010E94A000882383
:10026000B9F70F90CF91DF911F910F91FF90EF9011
:100270000895F89490930F0980930E091092C50089
:1002800087E68093C4008EE08093C2001092090933
:10029000109208098FEF93E090930B0980930A095D
:1002A00010920D0910920C0910920305109202058C
:1002B000909305058093040510920705109206059A
:1002C000E1ECF0E08081877D80838081806980839C
:1002D00008951F920F920FB60F9211242F933F9300
:1002E0004F935F936F937F938F939F93AF93BF933E
:1002F000EF93FF93269A85B190E4892785B9809181
:10030000C600809301018091C10088628093C10082
:1003100088E095E00E94190182E091E00E941901B5
:1003200080910C0990910D098050944084F005C093
:1003300088E095E00E946C000FC0E0910E09F091FA
:100340000F0988E095E062E071E0099505C06091D1
:1003500001016A3091F3ECCFFF91EF91BF91AF9122
:100360009F918F917F916F915F914F913F912F91CD
:100370000F900FBE0F901F9018951F920F920FB6FF
:100380000F9211242F933F934F935F936F937F931B
:100390008F939F93AF93BF93EF93FF9382E091E08E
:1003A00060E071E00E94A000882329F510920909FD
:1003B000109208098FEF93E090930B0980930A093C
:1003C00010920D0910920C0910920305109202056B
:1003D0009093050580930405109207051092060579
:1003E0008091C100877D8093C1008091C1008069A8
:1003F0008093C10004C0809100018093C600FF91EA
:10040000EF91BF91AF919F918F917F916F915F918C
:100410004F913F912F910F900FBE0F901F90189505
:1004200087E690E00E9439011092090910920809AC
:100430008FEF93E090930B0980930A0910920D09B6
:1004400010920C0910920305109202059093050575
:100450008093040510920705109206058091C10053
:10046000877D8093C1008091C10080698093C10025
:100470007894389A41E020E931E088B1842788B93E
:1004800080ED97E0F9013197F1F70197D9F7F5CFB2
:100490004FEF53E00E94B3029C0180E0232B09F44C
:1004A00081E00895EF92FF920F931F93CF93DF9314
:1004B0007C01DC010D900020E9F78D010150104016
:1004C000081B190BC0E0D0E009C0F701EC0FFD1FBD
:1004D00082E091E060810E946C0021968091060587
:1004E000909107058050944084F082E091E00E9452
:1004F000CC008091C10088628093C100DF91CF91D0
:100500001F910F91FF90EF900895C8018C1B9D0BD8
:1005100018161906D4F2E9CF97FB092E07260AD040
:1005200077FD04D00CD006D000201AF470956195A8
:100530007F4F0895F6F7909581959F4F0895AA1BD8
:10054000BB1B51E107C0AA1FBB1FA617B70710F0BE
:10055000A61BB70B881F991F5A95A9F780959095F0
:10056000BC01CD010895FB01DC014150504030F049
:100570008D910190801919F40020B9F7881B990B0F
:060580000895F894FFCF7E
:00000001FF
