:100000000C9434000C9451000C9451000C94510049
:100010000C9451000C9451000C9451000C9451001C
:100020000C9451000C9451000C9451000C9451000C
:100030000C9451000C9451000C9451000C945100FC
:100040000C9451000C9451000C946D020C94870197
:100050000C9451000C9451000C9451000C945100DC
:100060000C9451000C94510011241FBECFEFD8E026
:10007000DEBFCDBF11E0A0E0B1E0E2ECF5E002C0F0
:1000800005900D92AA36B107D9F712E0AAE6B1E0C1
:1000900001C01D92A837B107E1F70E944B010C94F3
:1000A000DF020C9400009093C5008093C4008EE0A2
:1000B0008093C2000895E1ECF0E080818069808344
:1000C0000895E1ECF0E08081886280830895E1EC9E
:1000D000F0E080818F7680830895E1ECF0E080810C
:1000E000877D80830895982F8091C10088628093D6
:1000F000C1008091C00085FFFCCF9093C600809125
:10010000C100877D8093C10008958091C00087FF62
:10011000FCCF8091C6000895FC01E058FF4F11927A
:1001200011928FE790E0819391931182108208954C
:1001300020E0FC01EC57FF4F8081918180389105D0
:100140000CF021E0822F089520E0FC01EC57FF4FD6
:1001500080819181181619060CF021E0822F0895F4
:10016000EF92FF920F931F93CF93DF938C01462F53
:1001700084E8E82EF12CE00EF11ED701CD91DC9140
:10018000C038D10544F080E0DF91CF911F910F91ED
:10019000FF90EF90089598012E573F4FF90180810D
:1001A0009181019660E870E00E94AA02FC01D901E9
:1001B0008D939C93E00FF11F40832196F701D1832B
:1001C000C08381E0E1CFCF93DF93AC01EC01CC574A
:1001D000DF4F888199811816190624F080E0DF919D
:1001E000CF9108959A0120583F4FD901ED91FC918C
:1001F0001197E40FF51F8081FB0180838D919C9105
:10020000019660E870E00E94AA02D9018D939C9348
:100210008881998101979983888381E0E0CFDC010F
:10022000AC57BF4F8D919C911197A458B040803826
:10023000910564F0AE57BF4FED91FC911197A25814
:10024000B040EA0FFB1F8AE080830895CD016AE089
:100250000E94B0000895EF92FF920F931F93DF93D7
:10026000CF930F92CDB7DEB78C017E010894E11CCD
:10027000F11C03C089810E947300C801B7010E946C
:10028000E3008823B9F70F90CF91DF911F910F9171
:10029000FF90EF9008951092C50089E18093C4000B
:1002A0008EE08093C20010927302109272028FE768
:1002B00090E09093750280937402109277021092EE
:1002C00076021092ED011092EC019093EF01809371
:1002D000EE011092F1011092F0018091C100877D32
:1002E0008093C1008091C10080698093C10078949F
:1002F000389A41E020E931E088B1842788B980ED5F
:1003000097E0F9013197F1F70197D9F7F5CF1F92EF
:100310000F920FB60F9211242F933F934F935F9339
:100320006F937F938F939F93AF93BF93EF93FF93BD
:100330008CE691E06BE671E00E94E300882329F5EA
:1003400010927302109272028FE790E09093750200
:100350008093740210927702109276021092ED014F
:100360001092EC019093EF018093EE011092F10155
:100370001092F0018091C100877D8093C10080912F
:10038000C10080698093C10004C080916B0180939B
:10039000C600FF91EF91BF91AF919F918F917F9197
:1003A0006F915F914F913F912F910F900FBE0F90E2
:1003B0001F9018954FE750E00E94D10240E050E0B6
:1003C000009711F441E050E0CA010895AF92BF9246
:1003D000CF92DF92EF92FF920F931F93CF93DF9311
:1003E0006C017B01DB010D900020E9F78D010150CC
:1003F0001040061B170BC0E0D0E094E8A92EB12CEA
:10040000AC0CBD1C08C0F701EC0FFD1FC6016081DC
:100410000E94B0002196F50180819181803891057C
:1004200074F0C6010E940F01DF91CF911F910F91CF
:10043000FF90EF90DF90CF90BF90AF900895C801EC
:100440008C1B9D0B18161906F4F2EBCF0F931F931C
:10045000182F092F8091C1008F768093C100812FC2
:100460000E940F0180E091E0612F702F4FE750E074
:100470000E94D1020097C1F48CE691E06FE071E038
:1004800009C08CE691E063E171E004C08CE691E084
:100490006CE271E00E94E6018091C1008862809365
:1004A000C1001F910F9108958DE491E0612F702F8D
:1004B0004FE750E00E94D102009719F383E591E0E5
:1004C000612F702F4FE750E00E94D1020097F1F2A8
:1004D0008CE691E06AE571E0DDCF1F920F920FB6D6
:1004E0000F9211242F933F934F935F936F937F93BA
:1004F0008F939F93AF93BF93EF93FF936091C60049
:1005000060936A018091760290917702803891051C
:100510006CF005C082EF91E00E94B0000AC082EF4B
:1005200091E06CE671E00E94260203C06A3091F708
:10053000F6CFFF91EF91BF91AF919F918F917F91F6
:100540006F915F914F913F912F910F900FBE0F9040
:100550001F90189597FB092E07260AD077FD04D027
:100560000CD006D000201AF4709561957F4F089545
:10057000F6F7909581959F4F0895AA1BBB1B51E1FB
:1005800007C0AA1FBB1FA617B70710F0A61BB70B03
:10059000881F991F5A95A9F780959095BC01CD01A8
:1005A0000895FB01DC014150504030F08D910190E5
:1005B000801919F40020B9F7881B990B0895F89455
:0205C000FFCF6B
:1005C20048454C4F20726F6F7420726F6F740041F8
:1005D200434B0048656C6C6F2066726F6D207468C7
:1005E200652061746D656761333238004350553A56
:1005F20031364D487A2C20424155443A2031393225
:1006020030302C20554252523A2035310068656C08
:100612006C6F0073746174757300496E76616C69F6
:0A0622006420436F6D6D616E64008B
:00000001FF
